{
  "contractName": "Bank",
  "abi": [
    {
      "inputs": [],
      "stateMutability": "nonpayable",
      "type": "constructor"
    },
    {
      "anonymous": false,
      "inputs": [
        {
          "indexed": true,
          "internalType": "address",
          "name": "account",
          "type": "address"
        },
        {
          "indexed": false,
          "internalType": "uint256",
          "name": "amount",
          "type": "uint256"
        }
      ],
      "name": "LogDeposit",
      "type": "event"
    },
    {
      "anonymous": false,
      "inputs": [
        {
          "indexed": true,
          "internalType": "address",
          "name": "account",
          "type": "address"
        },
        {
          "indexed": false,
          "internalType": "uint256",
          "name": "amount",
          "type": "uint256"
        }
      ],
      "name": "LogWithdrawal",
      "type": "event"
    },
    {
      "inputs": [
        {
          "internalType": "address",
          "name": "",
          "type": "address"
        }
      ],
      "name": "accounts",
      "outputs": [
        {
          "internalType": "uint256",
          "name": "",
          "type": "uint256"
        }
      ],
      "stateMutability": "view",
      "type": "function",
      "constant": true
    },
    {
      "inputs": [],
      "name": "owner",
      "outputs": [
        {
          "internalType": "address",
          "name": "",
          "type": "address"
        }
      ],
      "stateMutability": "view",
      "type": "function",
      "constant": true
    },
    {
      "inputs": [
        {
          "internalType": "uint256",
          "name": "amount",
          "type": "uint256"
        }
      ],
      "name": "deposit",
      "outputs": [],
      "stateMutability": "payable",
      "type": "function",
      "payable": true
    },
    {
      "inputs": [
        {
          "internalType": "uint256",
          "name": "amount",
          "type": "uint256"
        }
      ],
      "name": "withdraw",
      "outputs": [],
      "stateMutability": "payable",
      "type": "function",
      "payable": true
    },
    {
      "inputs": [],
      "name": "getBalance",
      "outputs": [
        {
          "internalType": "uint256",
          "name": "balance",
          "type": "uint256"
        }
      ],
      "stateMutability": "view",
      "type": "function",
      "constant": true
    }
  ],
  "bytecode": "0x608060405234801561001057600080fd5b50336000806101000a81548173ffffffffffffffffffffffffffffffffffffffff021916908373ffffffffffffffffffffffffffffffffffffffff160217905550610650806100606000396000f3fe60806040526004361061004a5760003560e01c806312065fe01461004f5780632e1a7d4d1461007a5780635e5c06e2146100965780638da5cb5b146100d3578063b6b55f25146100fe575b600080fd5b34801561005b57600080fd5b5061006461011a565b60405161007191906104cb565b60405180910390f35b610094600480360381019061008f9190610409565b610161565b005b3480156100a257600080fd5b506100bd60048036038101906100b891906103e0565b6102d1565b6040516100ca91906104cb565b60405180910390f35b3480156100df57600080fd5b506100e86102e9565b6040516100f59190610490565b60405180910390f35b61011860048036038101906101139190610409565b61030d565b005b6000600160003373ffffffffffffffffffffffffffffffffffffffff1673ffffffffffffffffffffffffffffffffffffffff16815260200190815260200160002054905090565b80600160003373ffffffffffffffffffffffffffffffffffffffff1673ffffffffffffffffffffffffffffffffffffffff1681526020019081526020016000205410156101e3576040517f08c379a00000000000000000000000000000000000000000000000000000000081526004016101da906104ab565b60405180910390fd5b80600160003373ffffffffffffffffffffffffffffffffffffffff1673ffffffffffffffffffffffffffffffffffffffff1681526020019081526020016000206000828254610232919061054d565b925050819055503373ffffffffffffffffffffffffffffffffffffffff166108fc829081150290604051600060405180830381858888f1935050505015801561027f573d6000803e3d6000fd5b503373ffffffffffffffffffffffffffffffffffffffff167fb4214c8c54fc7442f36d3682f59aebaf09358a4431835b30efb29d52cf9e1e91346040516102c691906104cb565b60405180910390a250565b60016020528060005260406000206000915090505481565b60008054906101000a900473ffffffffffffffffffffffffffffffffffffffff1681565b80341461031957600080fd5b80600160003373ffffffffffffffffffffffffffffffffffffffff1673ffffffffffffffffffffffffffffffffffffffff1681526020019081526020016000205461036491906104f7565b503373ffffffffffffffffffffffffffffffffffffffff167f1b851e1031ef35a238e6c67d0c7991162390df915f70eaf9098dbf0b175a6198346040516103ab91906104cb565b60405180910390a250565b6000813590506103c5816105ec565b92915050565b6000813590506103da81610603565b92915050565b6000602082840312156103f257600080fd5b6000610400848285016103b6565b91505092915050565b60006020828403121561041b57600080fd5b6000610429848285016103cb565b91505092915050565b61043b81610581565b82525050565b600061044e6012836104e6565b91507f496e73756666696369656e742066756e647300000000000000000000000000006000830152602082019050919050565b61048a816105b3565b82525050565b60006020820190506104a56000830184610432565b92915050565b600060208201905081810360008301526104c481610441565b9050919050565b60006020820190506104e06000830184610481565b92915050565b600082825260208201905092915050565b6000610502826105b3565b915061050d836105b3565b9250827fffffffffffffffffffffffffffffffffffffffffffffffffffffffffffffffff03821115610542576105416105bd565b5b828201905092915050565b6000610558826105b3565b9150610563836105b3565b925082821015610576576105756105bd565b5b828203905092915050565b600061058c82610593565b9050919050565b600073ffffffffffffffffffffffffffffffffffffffff82169050919050565b6000819050919050565b7f4e487b7100000000000000000000000000000000000000000000000000000000600052601160045260246000fd5b6105f581610581565b811461060057600080fd5b50565b61060c816105b3565b811461061757600080fd5b5056fea26469706673582212203e80fb4061996d061d98d7f2dea8e9b8defdb3088434fc8a867450b5640aca6364736f6c63430008000033",
  "immutableReferences": {},
  "source": "pragma solidity >=0.4.22 <0.9.0;\r\n\r\n/**\r\n * Implements the BNB-Bank\r\n * Allows user to deposit and withdraw funds\r\n */\r\ncontract Bank {\r\n\r\n    address public owner;\r\n    // uint private numAccounts;\r\n    // uint private totalFunds;\r\n\r\n    event LogDeposit(address indexed account, uint256 amount);\r\n    event LogWithdrawal(address indexed account, uint256 amount);\r\n\r\n    /**\r\n     * Create the Bank contract\r\n     */\r\n    constructor () {\r\n        owner = msg.sender;\r\n    }\r\n\r\n    // Stores user balance <address, balance>\r\n    mapping(address => uint256) public accounts;\r\n\r\n    /**\r\n     * Deposit funds in the bank\r\n     * A check for adequate user funds in MetaMask will be conducted client side\r\n     */\r\n    function deposit(uint256 amount) public payable{\r\n        // if (accounts[tx.origin].isEntity) throw;\r\n        require(msg.value == amount);\r\n        accounts[msg.sender] + amount;  // returns 0 if key is not in mapping  \r\n        emit LogDeposit(msg.sender, msg.value);      \r\n    }\r\n\r\n    /**\r\n     * Withdraw funds from the bank.\r\n     * Check for sufficient funds is done client side\r\n     */\r\n    function withdraw(uint256 amount) public payable {\r\n        require(accounts[msg.sender] >= amount, 'Insufficient funds');\r\n        // Deduct from bank\r\n        accounts[msg.sender] -= amount;\r\n        // Reimburse account holder\r\n        payable(msg.sender).transfer(amount);\r\n        emit LogWithdrawal(msg.sender, msg.value);      \r\n    }\r\n\r\n    /**\r\n     * Get a user's balance\r\n     */\r\n    function getBalance() public view returns(uint balance) {\r\n        return accounts[msg.sender];\r\n    }\r\n\r\n}",
  "sourcePath": "C:/Users/User/Desktop/Projects/bnb-bank/contracts/Bank.sol",
  "compiler": {
    "name": "solc",
    "version": "0.8.0+commit.c7dfd78e.Emscripten.clang"
  },
  "schemaVersion": "3.4.1",
  "updatedAt": "2021-07-05T16:08:03.668Z",
  "networkType": "ethereum",
  "devdoc": {
    "kind": "dev",
    "methods": {},
    "version": 1
  },
  "userdoc": {
    "kind": "user",
    "methods": {
      "constructor": {
        "notice": "Create the Bank contract"
      },
      "deposit(uint256)": {
        "notice": "Deposit funds in the bank A check for adequate user funds in MetaMask will be conducted client side"
      },
      "getBalance()": {
        "notice": "Get a user's balance"
      },
      "withdraw(uint256)": {
        "notice": "Withdraw funds from the bank. Check for sufficient funds is done client side"
      }
    },
    "notice": "Implements the BNB-Bank Allows user to deposit and withdraw funds",
    "version": 1
  }
}