{
  "contractName": "Bank",
  "abi": [
    {
      "inputs": [],
      "stateMutability": "nonpayable",
      "type": "constructor"
    },
    {
      "anonymous": false,
      "inputs": [
        {
          "indexed": true,
          "internalType": "address",
          "name": "account",
          "type": "address"
        },
        {
          "indexed": false,
          "internalType": "uint256",
          "name": "amount",
          "type": "uint256"
        }
      ],
      "name": "LogDeposit",
      "type": "event"
    },
    {
      "anonymous": false,
      "inputs": [
        {
          "indexed": true,
          "internalType": "address",
          "name": "account",
          "type": "address"
        },
        {
          "indexed": false,
          "internalType": "uint256",
          "name": "amount",
          "type": "uint256"
        }
      ],
      "name": "LogWithdrawal",
      "type": "event"
    },
    {
      "inputs": [],
      "name": "owner",
      "outputs": [
        {
          "internalType": "address",
          "name": "",
          "type": "address"
        }
      ],
      "stateMutability": "view",
      "type": "function"
    },
    {
      "inputs": [],
      "name": "deposit",
      "outputs": [
        {
          "internalType": "uint256",
          "name": "",
          "type": "uint256"
        }
      ],
      "stateMutability": "payable",
      "type": "function"
    },
    {
      "inputs": [
        {
          "internalType": "uint256",
          "name": "_amount",
          "type": "uint256"
        }
      ],
      "name": "withdraw",
      "outputs": [
        {
          "internalType": "uint256",
          "name": "",
          "type": "uint256"
        }
      ],
      "stateMutability": "nonpayable",
      "type": "function"
    },
    {
      "inputs": [],
      "name": "getBalance",
      "outputs": [
        {
          "internalType": "uint256",
          "name": "",
          "type": "uint256"
        }
      ],
      "stateMutability": "view",
      "type": "function"
    }
  ],
  "bytecode": "0x608060405234801561001057600080fd5b50336000806101000a81548173ffffffffffffffffffffffffffffffffffffffff021916908373ffffffffffffffffffffffffffffffffffffffff1602179055506105fe806100606000396000f3fe60806040526004361061003f5760003560e01c806312065fe0146100445780632e1a7d4d1461006f5780638da5cb5b146100ac578063d0e30db0146100d7575b600080fd5b34801561005057600080fd5b506100596100f5565b6040516100669190610490565b60405180910390f35b34801561007b57600080fd5b50610096600480360381019061009191906103ce565b61013c565b6040516100a39190610490565b60405180910390f35b3480156100b857600080fd5b506100c16102aa565b6040516100ce9190610455565b60405180910390f35b6100df6102ce565b6040516100ec9190610490565b60405180910390f35b6000600160003373ffffffffffffffffffffffffffffffffffffffff1673ffffffffffffffffffffffffffffffffffffffff16815260200190815260200160002054905090565b600081600160003373ffffffffffffffffffffffffffffffffffffffff1673ffffffffffffffffffffffffffffffffffffffff1681526020019081526020016000205410156101c0576040517f08c379a00000000000000000000000000000000000000000000000000000000081526004016101b790610470565b60405180910390fd5b81600160003373ffffffffffffffffffffffffffffffffffffffff1673ffffffffffffffffffffffffffffffffffffffff168152602001908152602001600020600082825461020f9190610512565b9250508190555060003390508073ffffffffffffffffffffffffffffffffffffffff166108fc849081150290604051600060405180830381858888f19350505050158015610261573d6000803e3d6000fd5b50600160003373ffffffffffffffffffffffffffffffffffffffff1673ffffffffffffffffffffffffffffffffffffffff16815260200190815260200160002054915050919050565b60008054906101000a900473ffffffffffffffffffffffffffffffffffffffff1681565b600034600160003373ffffffffffffffffffffffffffffffffffffffff1673ffffffffffffffffffffffffffffffffffffffff168152602001908152602001600020600082825461031f91906104bc565b925050819055503373ffffffffffffffffffffffffffffffffffffffff167f1b851e1031ef35a238e6c67d0c7991162390df915f70eaf9098dbf0b175a61983460405161036c9190610490565b60405180910390a2600160003373ffffffffffffffffffffffffffffffffffffffff1673ffffffffffffffffffffffffffffffffffffffff16815260200190815260200160002054905090565b6000813590506103c8816105b1565b92915050565b6000602082840312156103e057600080fd5b60006103ee848285016103b9565b91505092915050565b61040081610546565b82525050565b60006104136012836104ab565b91507f496e73756666696369656e742066756e647300000000000000000000000000006000830152602082019050919050565b61044f81610578565b82525050565b600060208201905061046a60008301846103f7565b92915050565b6000602082019050818103600083015261048981610406565b9050919050565b60006020820190506104a56000830184610446565b92915050565b600082825260208201905092915050565b60006104c782610578565b91506104d283610578565b9250827fffffffffffffffffffffffffffffffffffffffffffffffffffffffffffffffff0382111561050757610506610582565b5b828201905092915050565b600061051d82610578565b915061052883610578565b92508282101561053b5761053a610582565b5b828203905092915050565b600061055182610558565b9050919050565b600073ffffffffffffffffffffffffffffffffffffffff82169050919050565b6000819050919050565b7f4e487b7100000000000000000000000000000000000000000000000000000000600052601160045260246000fd5b6105ba81610578565b81146105c557600080fd5b5056fea2646970667358221220535b257a08e02fc0140bbf19be68114c96abe7cfc25bb8b2d3824bb2020e486964736f6c63430008000033",
  "immutableReferences": {},
  "source": "pragma solidity >=0.6.0 <0.9.0;\r\n\r\n/**\r\n * Implements the BNB-Bank\r\n * Allows user to deposit and withdraw funds\r\n */\r\ncontract Bank {\r\n\r\n    address public owner;\r\n    mapping(address => uint256) private accounts;\r\n\r\n    event LogDeposit(address indexed account, uint256 amount);\r\n    event LogWithdrawal(address indexed account, uint256 amount);\r\n\r\n\r\n    /**\r\n     * Create the Bank contract\r\n     */\r\n    constructor () {\r\n        owner = msg.sender;\r\n    }\r\n\r\n\r\n    /**\r\n     * Deposit funds in the bank.\r\n     * A check for adequate user funds in MetaMask will be conducted client side.\r\n     */\r\n    function deposit() public payable returns(uint256) {\r\n        // require(accounts[msg.sender] == 0, 'Account holder already has a deposit.');\r\n        accounts[msg.sender] += msg.value;  // returns 0 if key is not in mapping \r\n        emit LogDeposit(msg.sender, msg.value);      \r\n        return accounts[msg.sender];\r\n    }\r\n\r\n\r\n    /**\r\n     * Withdraw funds from the bank.\r\n     */\r\n    function withdraw(uint256 _amount) public returns(uint256) {\r\n        \r\n        require(accounts[msg.sender] >= _amount, 'Insufficient funds');\r\n\r\n        // // Check funds were withdrawn\r\n        // (bool sent, ) = msg.sender.call{value: _amount}(\"\");\r\n        // require(sent, \"Failed to send Ether\");\r\n\r\n        // Deduct from bank\r\n        accounts[msg.sender] -= _amount;\r\n        address payable receiver = payable(msg.sender); \r\n        receiver.transfer(_amount);\r\n        // emit LogWithdrawal(msg.sender, msg.value);      \r\n        return accounts[msg.sender];\r\n    }\r\n\r\n\r\n    /**\r\n     * Get a user's balance\r\n     */\r\n    function getBalance() public view returns(uint256) {\r\n        return accounts[msg.sender];\r\n    }\r\n\r\n}\r\n",
  "sourcePath": "C:/Users/User/Desktop/Projects/bnb-bank/contracts/Bank.sol",
  "compiler": {
    "name": "solc",
    "version": "0.8.0+commit.c7dfd78e.Emscripten.clang"
  },
  "schemaVersion": "3.4.1",
  "updatedAt": "2021-07-07T16:25:27.854Z",
  "devdoc": {
    "kind": "dev",
    "methods": {},
    "version": 1
  },
  "userdoc": {
    "kind": "user",
    "methods": {
      "constructor": {
        "notice": "Create the Bank contract"
      },
      "deposit()": {
        "notice": "Deposit funds in the bank. A check for adequate user funds in MetaMask will be conducted client side."
      },
      "getBalance()": {
        "notice": "Get a user's balance"
      },
      "withdraw(uint256)": {
        "notice": "Withdraw funds from the bank."
      }
    },
    "notice": "Implements the BNB-Bank Allows user to deposit and withdraw funds",
    "version": 1
  }
}