{
  "contractName": "Bank",
  "abi": [
    {
      "inputs": [
        {
          "internalType": "address",
          "name": "token_address_",
          "type": "address"
        }
      ],
      "stateMutability": "nonpayable",
      "type": "constructor"
    },
    {
      "anonymous": false,
      "inputs": [
        {
          "indexed": true,
          "internalType": "address",
          "name": "account",
          "type": "address"
        },
        {
          "indexed": false,
          "internalType": "uint256",
          "name": "amount",
          "type": "uint256"
        }
      ],
      "name": "LogDeposit",
      "type": "event"
    },
    {
      "inputs": [],
      "name": "owner",
      "outputs": [
        {
          "internalType": "address",
          "name": "",
          "type": "address"
        }
      ],
      "stateMutability": "view",
      "type": "function",
      "constant": true
    },
    {
      "inputs": [],
      "name": "deposit",
      "outputs": [
        {
          "internalType": "uint256",
          "name": "",
          "type": "uint256"
        }
      ],
      "stateMutability": "payable",
      "type": "function",
      "payable": true
    },
    {
      "inputs": [],
      "name": "withdraw",
      "outputs": [
        {
          "internalType": "uint256",
          "name": "",
          "type": "uint256"
        }
      ],
      "stateMutability": "nonpayable",
      "type": "function"
    },
    {
      "inputs": [],
      "name": "withdrawWithInterest",
      "outputs": [
        {
          "internalType": "uint256",
          "name": "",
          "type": "uint256"
        }
      ],
      "stateMutability": "nonpayable",
      "type": "function"
    },
    {
      "inputs": [],
      "name": "getBalance",
      "outputs": [
        {
          "internalType": "uint256",
          "name": "",
          "type": "uint256"
        }
      ],
      "stateMutability": "view",
      "type": "function",
      "constant": true
    }
  ],
  "bytecode": "0x608060405234801561001057600080fd5b506040516109b03803806109b0833981810160405281019061003291906100ce565b336000806101000a81548173ffffffffffffffffffffffffffffffffffffffff021916908373ffffffffffffffffffffffffffffffffffffffff16021790555080600260006101000a81548173ffffffffffffffffffffffffffffffffffffffff021916908373ffffffffffffffffffffffffffffffffffffffff16021790555050610140565b6000815190506100c881610129565b92915050565b6000602082840312156100e057600080fd5b60006100ee848285016100b9565b91505092915050565b600061010282610109565b9050919050565b600073ffffffffffffffffffffffffffffffffffffffff82169050919050565b610132816100f7565b811461013d57600080fd5b50565b6108618061014f6000396000f3fe60806040526004361061004a5760003560e01c806312065fe01461004f5780633ccfd60b1461007a5780638bcdfe79146100a55780638da5cb5b146100d0578063d0e30db0146100fb575b600080fd5b34801561005b57600080fd5b50610064610119565b60405161007191906106aa565b60405180910390f35b34801561008657600080fd5b5061008f610160565b60405161009c91906106aa565b60405180910390f35b3480156100b157600080fd5b506100ba6102d1565b6040516100c791906106aa565b60405180910390f35b3480156100dc57600080fd5b506100e56104d9565b6040516100f29190610646565b60405180910390f35b6101036104fd565b60405161011091906106aa565b60405180910390f35b6000600160003373ffffffffffffffffffffffffffffffffffffffff1673ffffffffffffffffffffffffffffffffffffffff16815260200190815260200160002054905090565b600080600160003373ffffffffffffffffffffffffffffffffffffffff1673ffffffffffffffffffffffffffffffffffffffff168152602001908152602001600020549050600081116101e8576040517f08c379a00000000000000000000000000000000000000000000000000000000081526004016101df9061068a565b60405180910390fd5b80600160003373ffffffffffffffffffffffffffffffffffffffff1673ffffffffffffffffffffffffffffffffffffffff1681526020019081526020016000206000828254610237919061075d565b9250508190555060003390508073ffffffffffffffffffffffffffffffffffffffff166108fc839081150290604051600060405180830381858888f19350505050158015610289573d6000803e3d6000fd5b50600160003373ffffffffffffffffffffffffffffffffffffffff1673ffffffffffffffffffffffffffffffffffffffff168152602001908152602001600020549250505090565b600080600160003373ffffffffffffffffffffffffffffffffffffffff1673ffffffffffffffffffffffffffffffffffffffff16815260200190815260200160002054905060008111610359576040517f08c379a00000000000000000000000000000000000000000000000000000000081526004016103509061068a565b60405180910390fd5b80600160003373ffffffffffffffffffffffffffffffffffffffff1673ffffffffffffffffffffffffffffffffffffffff16815260200190815260200160002060008282546103a8919061075d565b925050819055503373ffffffffffffffffffffffffffffffffffffffff166108fc829081150290604051600060405180830381858888f193505050501580156103f5573d6000803e3d6000fd5b50600260009054906101000a900473ffffffffffffffffffffffffffffffffffffffff1673ffffffffffffffffffffffffffffffffffffffff166340c10f1933620186a084610444919061072c565b6040518363ffffffff1660e01b8152600401610461929190610661565b600060405180830381600087803b15801561047b57600080fd5b505af115801561048f573d6000803e3d6000fd5b50505050600160003373ffffffffffffffffffffffffffffffffffffffff1673ffffffffffffffffffffffffffffffffffffffff1681526020019081526020016000205491505090565b60008054906101000a900473ffffffffffffffffffffffffffffffffffffffff1681565b600034600160003373ffffffffffffffffffffffffffffffffffffffff1673ffffffffffffffffffffffffffffffffffffffff168152602001908152602001600020600082825461054e91906106d6565b925050819055503373ffffffffffffffffffffffffffffffffffffffff167f1b851e1031ef35a238e6c67d0c7991162390df915f70eaf9098dbf0b175a61983460405161059b91906106aa565b60405180910390a2600160003373ffffffffffffffffffffffffffffffffffffffff1673ffffffffffffffffffffffffffffffffffffffff16815260200190815260200160002054905090565b6105f181610791565b82525050565b60006106046010836106c5565b91507f4163636f756e7420697320656d707479000000000000000000000000000000006000830152602082019050919050565b610640816107c3565b82525050565b600060208201905061065b60008301846105e8565b92915050565b600060408201905061067660008301856105e8565b6106836020830184610637565b9392505050565b600060208201905081810360008301526106a3816105f7565b9050919050565b60006020820190506106bf6000830184610637565b92915050565b600082825260208201905092915050565b60006106e1826107c3565b91506106ec836107c3565b9250827fffffffffffffffffffffffffffffffffffffffffffffffffffffffffffffffff03821115610721576107206107cd565b5b828201905092915050565b6000610737826107c3565b9150610742836107c3565b925082610752576107516107fc565b5b828204905092915050565b6000610768826107c3565b9150610773836107c3565b925082821015610786576107856107cd565b5b828203905092915050565b600061079c826107a3565b9050919050565b600073ffffffffffffffffffffffffffffffffffffffff82169050919050565b6000819050919050565b7f4e487b7100000000000000000000000000000000000000000000000000000000600052601160045260246000fd5b7f4e487b7100000000000000000000000000000000000000000000000000000000600052601260045260246000fdfea26469706673582212201afca6d77e39e6b59677602634ea6f660484e202974497ebc987fa59419cc63d64736f6c63430008000033",
  "immutableReferences": {},
  "source": "// SPDX-License-Identifier: MIT\r\npragma solidity >=0.6.0 <0.9.0;\r\n\r\nimport './Token.sol';\r\n\r\n/**\r\n * @dev Implements the BNB-Bank\r\n * Allows user to deposit and withdraw funds\r\n */\r\ncontract Bank {\r\n\r\n    address public owner;\r\n    mapping(address => uint256) private accounts;\r\n    Token token;\r\n    \r\n    event LogDeposit(address indexed account, uint256 amount);\r\n\r\n\r\n    /**\r\n     * @dev Create the Bank contract, assumes a Token contract has been deployed already.\r\n     * Requires manually changing the minter of the Token to the owner of the Bank contract.\r\n     * *An alternative would be to instantiate the Token here, so the the bank is minter\r\n     */\r\n    constructor (address token_address_) {\r\n        owner = msg.sender;\r\n        token = Token(token_address_);\r\n    }\r\n\r\n\r\n    /**\r\n     * @dev Deposit funds in the bank.\r\n     * A check for adequate user funds in MetaMask will be conducted client side.\r\n     */\r\n    function deposit() public payable returns(uint256) {\r\n        \r\n        accounts[msg.sender] += msg.value;  // returns 0 if key is not in mapping \r\n        emit LogDeposit(msg.sender, msg.value);      \r\n        return accounts[msg.sender];\r\n    }\r\n\r\n\r\n    /**\r\n     * @dev Withdraw funds from the bank.\r\n     */\r\n    function withdraw() public returns(uint256) {\r\n        \r\n        uint256 balance = accounts[msg.sender];\r\n        require(balance > 0, 'Account is empty');\r\n\r\n        // Deduct from bank\r\n        accounts[msg.sender] -= balance;\r\n        address payable receiver = payable(msg.sender); \r\n        receiver.transfer(balance);     \r\n        return accounts[msg.sender];\r\n    }\r\n\r\n\r\n    /**\r\n     * @dev Withdraw funds from the bank and receive DBC Token interest.\r\n     * Interest is hard coded to 1 DBC Token\r\n     */\r\n    function withdrawWithInterest() public returns(uint256) {\r\n        \r\n        uint256 balance = accounts[msg.sender];\r\n        require(balance > 0, 'Account is empty');\r\n\r\n        // Deduct from bank\r\n        accounts[msg.sender] -= balance;\r\n        payable(msg.sender).transfer(balance);     \r\n        \r\n        // Mint and transfer new tokens to sender's account\r\n        token.mint(msg.sender, balance / 100000);\r\n        return accounts[msg.sender];\r\n    }\r\n\r\n\r\n    /**\r\n     * Get a user's balance\r\n     */\r\n    function getBalance() public view returns(uint256) {\r\n        return accounts[msg.sender];\r\n    }\r\n}\r\n",
  "sourcePath": "C:/Users/User/Desktop/Projects/bnb-bank/contracts/Bank.sol",
  "compiler": {
    "name": "solc",
    "version": "0.8.0+commit.c7dfd78e.Emscripten.clang"
  },
  "schemaVersion": "3.4.1",
  "updatedAt": "2021-07-12T11:05:24.461Z",
  "networkType": "ethereum",
  "devdoc": {
    "details": "Implements the BNB-Bank Allows user to deposit and withdraw funds",
    "kind": "dev",
    "methods": {
      "constructor": {
        "details": "Create the Bank contract, assumes a Token contract has been deployed already. Requires manually changing the minter of the Token to the owner of the Bank contract. *An alternative would be to instantiate the Token here, so the the bank is minter"
      },
      "deposit()": {
        "details": "Deposit funds in the bank. A check for adequate user funds in MetaMask will be conducted client side."
      },
      "withdraw()": {
        "details": "Withdraw funds from the bank."
      },
      "withdrawWithInterest()": {
        "details": "Withdraw funds from the bank and receive DBC Token interest. Interest is hard coded to 1 DBC Token"
      }
    },
    "version": 1
  },
  "userdoc": {
    "kind": "user",
    "methods": {
      "getBalance()": {
        "notice": "Get a user's balance"
      }
    },
    "version": 1
  }
}