{
  "contractName": "Bank",
  "abi": [
    {
      "inputs": [
        {
          "internalType": "address",
          "name": "token_address_",
          "type": "address"
        }
      ],
      "stateMutability": "nonpayable",
      "type": "constructor"
    },
    {
      "anonymous": false,
      "inputs": [
        {
          "indexed": true,
          "internalType": "address",
          "name": "account",
          "type": "address"
        },
        {
          "indexed": false,
          "internalType": "uint256",
          "name": "amount",
          "type": "uint256"
        }
      ],
      "name": "LogDeposit",
      "type": "event"
    },
    {
      "inputs": [],
      "name": "owner",
      "outputs": [
        {
          "internalType": "address",
          "name": "",
          "type": "address"
        }
      ],
      "stateMutability": "view",
      "type": "function",
      "constant": true
    },
    {
      "inputs": [],
      "name": "deposit",
      "outputs": [
        {
          "internalType": "uint256",
          "name": "",
          "type": "uint256"
        }
      ],
      "stateMutability": "payable",
      "type": "function",
      "payable": true
    },
    {
      "inputs": [
        {
          "internalType": "uint256",
          "name": "_amount",
          "type": "uint256"
        }
      ],
      "name": "withdraw",
      "outputs": [
        {
          "internalType": "uint256",
          "name": "",
          "type": "uint256"
        }
      ],
      "stateMutability": "nonpayable",
      "type": "function"
    },
    {
      "inputs": [
        {
          "internalType": "uint256",
          "name": "_amount",
          "type": "uint256"
        }
      ],
      "name": "withdrawWithInterest",
      "outputs": [
        {
          "internalType": "uint256",
          "name": "",
          "type": "uint256"
        }
      ],
      "stateMutability": "nonpayable",
      "type": "function"
    },
    {
      "inputs": [],
      "name": "getBalance",
      "outputs": [
        {
          "internalType": "uint256",
          "name": "",
          "type": "uint256"
        }
      ],
      "stateMutability": "view",
      "type": "function",
      "constant": true
    }
  ],
  "bytecode": "0x608060405234801561001057600080fd5b506040516109dd3803806109dd833981810160405281019061003291906100ce565b336000806101000a81548173ffffffffffffffffffffffffffffffffffffffff021916908373ffffffffffffffffffffffffffffffffffffffff16021790555080600260006101000a81548173ffffffffffffffffffffffffffffffffffffffff021916908373ffffffffffffffffffffffffffffffffffffffff16021790555050610140565b6000815190506100c881610129565b92915050565b6000602082840312156100e057600080fd5b60006100ee848285016100b9565b91505092915050565b600061010282610109565b9050919050565b600073ffffffffffffffffffffffffffffffffffffffff82169050919050565b610132816100f7565b811461013d57600080fd5b50565b61088e8061014f6000396000f3fe60806040526004361061004a5760003560e01c806312065fe01461004f5780632e1a7d4d1461007a5780638da5cb5b146100b7578063d0e30db0146100e2578063df298d4014610100575b600080fd5b34801561005b57600080fd5b5061006461013d565b604051610071919061070e565b60405180910390f35b34801561008657600080fd5b506100a1600480360381019061009c9190610614565b610184565b6040516100ae919061070e565b60405180910390f35b3480156100c357600080fd5b506100cc6102f2565b6040516100d991906106aa565b60405180910390f35b6100ea610316565b6040516100f7919061070e565b60405180910390f35b34801561010c57600080fd5b5061012760048036038101906101229190610614565b610401565b604051610134919061070e565b60405180910390f35b6000600160003373ffffffffffffffffffffffffffffffffffffffff1673ffffffffffffffffffffffffffffffffffffffff16815260200190815260200160002054905090565b600081600160003373ffffffffffffffffffffffffffffffffffffffff1673ffffffffffffffffffffffffffffffffffffffff168152602001908152602001600020541015610208576040517f08c379a00000000000000000000000000000000000000000000000000000000081526004016101ff906106ee565b60405180910390fd5b81600160003373ffffffffffffffffffffffffffffffffffffffff1673ffffffffffffffffffffffffffffffffffffffff16815260200190815260200160002060008282546102579190610790565b9250508190555060003390508073ffffffffffffffffffffffffffffffffffffffff166108fc849081150290604051600060405180830381858888f193505050501580156102a9573d6000803e3d6000fd5b50600160003373ffffffffffffffffffffffffffffffffffffffff1673ffffffffffffffffffffffffffffffffffffffff16815260200190815260200160002054915050919050565b60008054906101000a900473ffffffffffffffffffffffffffffffffffffffff1681565b600034600160003373ffffffffffffffffffffffffffffffffffffffff1673ffffffffffffffffffffffffffffffffffffffff1681526020019081526020016000206000828254610367919061073a565b925050819055503373ffffffffffffffffffffffffffffffffffffffff167f1b851e1031ef35a238e6c67d0c7991162390df915f70eaf9098dbf0b175a6198346040516103b4919061070e565b60405180910390a2600160003373ffffffffffffffffffffffffffffffffffffffff1673ffffffffffffffffffffffffffffffffffffffff16815260200190815260200160002054905090565b600081600160003373ffffffffffffffffffffffffffffffffffffffff1673ffffffffffffffffffffffffffffffffffffffff168152602001908152602001600020541015610485576040517f08c379a000000000000000000000000000000000000000000000000000000000815260040161047c906106ee565b60405180910390fd5b81600160003373ffffffffffffffffffffffffffffffffffffffff1673ffffffffffffffffffffffffffffffffffffffff16815260200190815260200160002060008282546104d49190610790565b9250508190555060003390508073ffffffffffffffffffffffffffffffffffffffff166108fc849081150290604051600060405180830381858888f19350505050158015610526573d6000803e3d6000fd5b50600260009054906101000a900473ffffffffffffffffffffffffffffffffffffffff1673ffffffffffffffffffffffffffffffffffffffff166340c10f193360016040518363ffffffff1660e01b81526004016105859291906106c5565b600060405180830381600087803b15801561059f57600080fd5b505af11580156105b3573d6000803e3d6000fd5b50505050600160003373ffffffffffffffffffffffffffffffffffffffff1673ffffffffffffffffffffffffffffffffffffffff16815260200190815260200160002054915050919050565b60008135905061060e81610841565b92915050565b60006020828403121561062657600080fd5b6000610634848285016105ff565b91505092915050565b610646816107c4565b82525050565b61065581610800565b82525050565b6000610668601283610729565b91507f496e73756666696369656e742066756e647300000000000000000000000000006000830152602082019050919050565b6106a4816107f6565b82525050565b60006020820190506106bf600083018461063d565b92915050565b60006040820190506106da600083018561063d565b6106e7602083018461064c565b9392505050565b600060208201905081810360008301526107078161065b565b9050919050565b6000602082019050610723600083018461069b565b92915050565b600082825260208201905092915050565b6000610745826107f6565b9150610750836107f6565b9250827fffffffffffffffffffffffffffffffffffffffffffffffffffffffffffffffff0382111561078557610784610812565b5b828201905092915050565b600061079b826107f6565b91506107a6836107f6565b9250828210156107b9576107b8610812565b5b828203905092915050565b60006107cf826107d6565b9050919050565b600073ffffffffffffffffffffffffffffffffffffffff82169050919050565b6000819050919050565b600061080b826107f6565b9050919050565b7f4e487b7100000000000000000000000000000000000000000000000000000000600052601160045260246000fd5b61084a816107f6565b811461085557600080fd5b5056fea2646970667358221220d7bd935b6cdf3c23e194b43be623dd73daee4795db897fc7bdb2ffe86e5c87f764736f6c63430008000033",
  "immutableReferences": {},
  "source": "// SPDX-License-Identifier: MIT\r\npragma solidity >=0.6.0 <0.9.0;\r\n\r\nimport './Token.sol';\r\n\r\n/**\r\n * @dev Implements the BNB-Bank\r\n * Allows user to deposit and withdraw funds\r\n */\r\ncontract Bank {\r\n\r\n    address public owner;\r\n    mapping(address => uint256) private accounts;\r\n    Token token;\r\n    \r\n    event LogDeposit(address indexed account, uint256 amount);\r\n\r\n    /**\r\n     * @dev Create the Bank contract, assumes a Token contract has been deployed already.\r\n     * Requires manually changing the minter of the Token to the owner of the Bank contract.\r\n     * *An alternative would be to instantiate the Token here, so the the bank is minter\r\n     */\r\n    constructor (address token_address_) {\r\n        owner = msg.sender;\r\n        token = Token(token_address_);\r\n    }\r\n\r\n    /**\r\n     * @dev Deposit funds in the bank.\r\n     * A check for adequate user funds in MetaMask will be conducted client side.\r\n     */\r\n    function deposit() public payable returns(uint256) {\r\n        \r\n        accounts[msg.sender] += msg.value;  // returns 0 if key is not in mapping \r\n        emit LogDeposit(msg.sender, msg.value);      \r\n        return accounts[msg.sender];\r\n    }\r\n\r\n\r\n    /**\r\n     * @dev Withdraw funds from the bank.\r\n     */\r\n    function withdraw(uint256 _amount) public returns(uint256) {\r\n        \r\n        require(accounts[msg.sender] >= _amount, 'Insufficient funds');\r\n\r\n        // Deduct from bank\r\n        accounts[msg.sender] -= _amount;\r\n        address payable receiver = payable(msg.sender); \r\n        receiver.transfer(_amount);     \r\n        return accounts[msg.sender];\r\n    }\r\n\r\n\r\n    /**\r\n     * @dev Withdraw funds from the bank and receive DBC Token interest.\r\n     * Interest is hard coded to 1 DBC Token\r\n     */\r\n    function withdrawWithInterest(uint256 _amount) public returns(uint256) {\r\n        \r\n        require(accounts[msg.sender] >= _amount, 'Insufficient funds');\r\n\r\n        // Deduct from bank\r\n        accounts[msg.sender] -= _amount;\r\n        address payable receiver = payable(msg.sender); \r\n        receiver.transfer(_amount);     \r\n        \r\n        // Mint a new token and transfer to sender's account\r\n        token.mint(msg.sender, 1);\r\n        return accounts[msg.sender];\r\n    }\r\n\r\n\r\n    /**\r\n     * Get a user's balance\r\n     */\r\n    function getBalance() public view returns(uint256) {\r\n        return accounts[msg.sender];\r\n    }\r\n\r\n}\r\n",
  "sourcePath": "C:/Users/User/Desktop/Projects/bnb-bank/contracts/Bank.sol",
  "compiler": {
    "name": "solc",
    "version": "0.8.0+commit.c7dfd78e.Emscripten.clang"
  },
  "schemaVersion": "3.4.1",
  "updatedAt": "2021-07-09T20:12:35.891Z",
  "networkType": "ethereum",
  "devdoc": {
    "details": "Implements the BNB-Bank Allows user to deposit and withdraw funds",
    "kind": "dev",
    "methods": {
      "constructor": {
        "details": "Create the Bank contract, assumes a Token contract has been deployed already. Requires manually changing the minter of the Token to the owner of the Bank contract. *An alternative would be to instantiate the Token here, so the the bank is minter"
      },
      "deposit()": {
        "details": "Deposit funds in the bank. A check for adequate user funds in MetaMask will be conducted client side."
      },
      "withdraw(uint256)": {
        "details": "Withdraw funds from the bank."
      },
      "withdrawWithInterest(uint256)": {
        "details": "Withdraw funds from the bank and receive DBC Token interest. Interest is hard coded to 1 DBC Token"
      }
    },
    "version": 1
  },
  "userdoc": {
    "kind": "user",
    "methods": {
      "getBalance()": {
        "notice": "Get a user's balance"
      }
    },
    "version": 1
  }
}